{
  "contractName": "Account",
  "abi": [
    {
      "constant": true,
      "inputs": [],
      "name": "TaxOutputAddress",
      "outputs": [
        {
          "name": "",
          "type": "address"
        }
      ],
      "payable": false,
      "stateMutability": "view",
      "type": "function"
    },
    {
      "constant": true,
      "inputs": [],
      "name": "TimeTillReward",
      "outputs": [
        {
          "name": "",
          "type": "uint256"
        }
      ],
      "payable": false,
      "stateMutability": "view",
      "type": "function"
    },
    {
      "constant": true,
      "inputs": [],
      "name": "AccountStatus",
      "outputs": [
        {
          "name": "",
          "type": "uint8"
        }
      ],
      "payable": false,
      "stateMutability": "view",
      "type": "function"
    },
    {
      "constant": true,
      "inputs": [
        {
          "name": "",
          "type": "address"
        }
      ],
      "name": "DelegatePermissions",
      "outputs": [
        {
          "name": "",
          "type": "uint8"
        }
      ],
      "payable": false,
      "stateMutability": "view",
      "type": "function"
    },
    {
      "constant": true,
      "inputs": [],
      "name": "PayoutFrequency",
      "outputs": [
        {
          "name": "",
          "type": "uint256"
        }
      ],
      "payable": false,
      "stateMutability": "view",
      "type": "function"
    },
    {
      "constant": true,
      "inputs": [],
      "name": "NetBalance",
      "outputs": [
        {
          "name": "",
          "type": "uint256"
        }
      ],
      "payable": false,
      "stateMutability": "view",
      "type": "function"
    },
    {
      "constant": true,
      "inputs": [],
      "name": "RewardSize",
      "outputs": [
        {
          "name": "",
          "type": "uint256"
        }
      ],
      "payable": false,
      "stateMutability": "view",
      "type": "function"
    },
    {
      "inputs": [
        {
          "name": "employeeId",
          "type": "address"
        },
        {
          "name": "accountType",
          "type": "uint8"
        }
      ],
      "payable": false,
      "stateMutability": "nonpayable",
      "type": "constructor"
    },
    {
      "payable": true,
      "stateMutability": "payable",
      "type": "fallback"
    },
    {
      "anonymous": false,
      "inputs": [
        {
          "indexed": false,
          "name": "createdAccount",
          "type": "string"
        }
      ],
      "name": "LogSuccessfullyCreated",
      "type": "event"
    },
    {
      "constant": false,
      "inputs": [
        {
          "name": "rewardIncrement",
          "type": "uint256"
        }
      ],
      "name": "increaseRewardSize",
      "outputs": [],
      "payable": false,
      "stateMutability": "nonpayable",
      "type": "function"
    },
    {
      "constant": false,
      "inputs": [
        {
          "name": "rewardIncrement",
          "type": "uint256"
        }
      ],
      "name": "decreaseRewardSize",
      "outputs": [],
      "payable": false,
      "stateMutability": "nonpayable",
      "type": "function"
    },
    {
      "constant": false,
      "inputs": [
        {
          "name": "payoutFrequencyIncrement",
          "type": "uint256"
        }
      ],
      "name": "increasePayoutFrequency",
      "outputs": [],
      "payable": false,
      "stateMutability": "nonpayable",
      "type": "function"
    },
    {
      "constant": false,
      "inputs": [
        {
          "name": "payoutFrequencyIncrement",
          "type": "uint256"
        }
      ],
      "name": "decreasePayoutFrequency",
      "outputs": [],
      "payable": false,
      "stateMutability": "nonpayable",
      "type": "function"
    },
    {
      "constant": false,
      "inputs": [
        {
          "name": "thirdPartyAddress",
          "type": "address"
        }
      ],
      "name": "removeAllDelegatePermissions",
      "outputs": [],
      "payable": false,
      "stateMutability": "nonpayable",
      "type": "function"
    },
    {
      "constant": false,
      "inputs": [
        {
          "name": "thirdPartyAddress",
          "type": "address"
        }
      ],
      "name": "permitToContributiveOnly",
      "outputs": [],
      "payable": false,
      "stateMutability": "nonpayable",
      "type": "function"
    },
    {
      "constant": false,
      "inputs": [
        {
          "name": "thirdPartyAddress",
          "type": "address"
        }
      ],
      "name": "permitToAdmistrative",
      "outputs": [],
      "payable": false,
      "stateMutability": "nonpayable",
      "type": "function"
    },
    {
      "constant": false,
      "inputs": [],
      "name": "closeAccount",
      "outputs": [],
      "payable": false,
      "stateMutability": "nonpayable",
      "type": "function"
    },
    {
      "constant": false,
      "inputs": [
        {
          "name": "recieverAddress",
          "type": "address"
        },
        {
          "name": "amount",
          "type": "uint256"
        }
      ],
      "name": "transferFunds",
      "outputs": [],
      "payable": false,
      "stateMutability": "nonpayable",
      "type": "function"
    }
  ],
  "bytecode": "0x608060405234801561001057600080fd5b50604051604080610cf78339810180604052604081101561003057600080fd5b810190808051906020019092919080519060200190929190505050306000806101000a81548173ffffffffffffffffffffffffffffffffffffffff021916908373ffffffffffffffffffffffffffffffffffffffff16021790555081600160006101000a81548173ffffffffffffffffffffffffffffffffffffffff021916908373ffffffffffffffffffffffffffffffffffffffff1602179055506001600860006101000a81548160ff021916908360018111156100eb57fe5b021790555080600860016101000a81548160ff0219169083600481111561010e57fe5b021790555060606040518060400160405280600681526020017f6c6f67676564000000000000000000000000000000000000000000000000000081525090507f1ab379b40005ad9e7ee28cc5354473bfe302c16d3f55bc66d50210a954c19190816040518080602001828103825283818151815260200191508051906020019080838360005b838110156101af578082015181840152602081019050610194565b50505050905090810190601f1680156101dc5780820380516001836020036101000a031916815260200191505b509250505060405180910390a1505050610afc806101fb6000396000f3fe6080604052600436106100f35760003560e01c806383be1bf11161008a578063a98521a911610059578063a98521a9146103fd578063df50e19d1461044e578063dfd44a9514610479578063ebd2a864146104b4576100f3565b806383be1bf1146102fb578063990dc9db1461034c5780639aee2e9a146103a75780639e2c1b16146103d2576100f3565b80636dd22fc6116100c65780636dd22fc6146101fb5780636fd7eb61146102125780637d34602d146102855780637d57daad146102c0576100f3565b806326107a381461010557806326c698011461015c57806339bfba7e14610187578063463da8be146101c2575b34600460008282540192505081905550005b34801561011157600080fd5b5061011a610505565b604051808273ffffffffffffffffffffffffffffffffffffffff1673ffffffffffffffffffffffffffffffffffffffff16815260200191505060405180910390f35b34801561016857600080fd5b5061017161052b565b6040518082815260200191505060405180910390f35b34801561019357600080fd5b506101c0600480360360208110156101aa57600080fd5b8101908080359060200190929190505050610531565b005b3480156101ce57600080fd5b506101d761054f565b604051808260018111156101e757fe5b60ff16815260200191505060405180910390f35b34801561020757600080fd5b50610210610562565b005b34801561021e57600080fd5b506102616004803603602081101561023557600080fd5b81019080803573ffffffffffffffffffffffffffffffffffffffff1690602001909291905050506106e7565b6040518082600281111561027157fe5b60ff16815260200191505060405180910390f35b34801561029157600080fd5b506102be600480360360208110156102a857600080fd5b8101908080359060200190929190505050610707565b005b3480156102cc57600080fd5b506102f9600480360360208110156102e357600080fd5b8101908080359060200190929190505050610725565b005b34801561030757600080fd5b5061034a6004803603602081101561031e57600080fd5b81019080803573ffffffffffffffffffffffffffffffffffffffff169060200190929190505050610743565b005b34801561035857600080fd5b506103a56004803603604081101561036f57600080fd5b81019080803573ffffffffffffffffffffffffffffffffffffffff16906020019092919080359060200190929190505050610812565b005b3480156103b357600080fd5b506103bc6108d1565b6040518082815260200191505060405180910390f35b3480156103de57600080fd5b506103e76108d7565b6040518082815260200191505060405180910390f35b34801561040957600080fd5b5061044c6004803603602081101561042057600080fd5b81019080803573ffffffffffffffffffffffffffffffffffffffff1690602001909291905050506108dd565b005b34801561045a57600080fd5b506104636109ac565b6040518082815260200191505060405180910390f35b34801561048557600080fd5b506104b26004803603602081101561049c57600080fd5b81019080803590602001909291905050506109b2565b005b3480156104c057600080fd5b50610503600480360360208110156104d757600080fd5b81019080803573ffffffffffffffffffffffffffffffffffffffff1690602001909291905050506109d0565b005b600260009054906101000a900473ffffffffffffffffffffffffffffffffffffffff1681565b60055481565b61054681600654610a9f90919063ffffffff16565b60068190555050565b600860009054906101000a900460ff1681565b600160009054906101000a900473ffffffffffffffffffffffffffffffffffffffff1673ffffffffffffffffffffffffffffffffffffffff163373ffffffffffffffffffffffffffffffffffffffff1614610625576040517f08c379a00000000000000000000000000000000000000000000000000000000081526004018080602001828103825260158152602001807f696e76616c696420617574686f7269736174696f6e000000000000000000000081525060200191505060405180910390fd5b6000600181111561063257fe5b600860009054906101000a900460ff16600181111561064d57fe5b14156106c1576040517f08c379a00000000000000000000000000000000000000000000000000000000081526004018080602001828103825260168152602001807f4163636f756e7420416c726561647920436c6f7365640000000000000000000081525060200191505060405180910390fd5b6000600860006101000a81548160ff021916908360018111156106e057fe5b0217905550565b60036020528060005260406000206000915054906101000a900460ff1681565b61071c81600754610a9f90919063ffffffff16565b60078190555050565b61073a81600754610ab990919063ffffffff16565b60078190555050565b6000600281111561075057fe5b600360008373ffffffffffffffffffffffffffffffffffffffff1673ffffffffffffffffffffffffffffffffffffffff16815260200190815260200160002060009054906101000a900460ff1660028111156107a857fe5b1461080f576000600360008373ffffffffffffffffffffffffffffffffffffffff1673ffffffffffffffffffffffffffffffffffffffff16815260200190815260200160002060006101000a81548160ff0219169083600281111561080957fe5b02179055505b50565b600160009054906101000a900473ffffffffffffffffffffffffffffffffffffffff1673ffffffffffffffffffffffffffffffffffffffff163373ffffffffffffffffffffffffffffffffffffffff16148015610870575080600454105b156108cd57806004600082825403925050819055508173ffffffffffffffffffffffffffffffffffffffff166108fc829081150290604051600060405180830381858888f193505050501580156108cb573d6000803e3d6000fd5b505b5050565b60075481565b60045481565b600060028111156108ea57fe5b600360008373ffffffffffffffffffffffffffffffffffffffff1673ffffffffffffffffffffffffffffffffffffffff16815260200190815260200160002060009054906101000a900460ff16600281111561094257fe5b146109a9576000600360008373ffffffffffffffffffffffffffffffffffffffff1673ffffffffffffffffffffffffffffffffffffffff16815260200190815260200160002060006101000a81548160ff021916908360028111156109a357fe5b02179055505b50565b60065481565b6109c781600654610ab990919063ffffffff16565b60068190555050565b600060028111156109dd57fe5b600360008373ffffffffffffffffffffffffffffffffffffffff1673ffffffffffffffffffffffffffffffffffffffff16815260200190815260200160002060009054906101000a900460ff166002811115610a3557fe5b14610a9c576000600360008373ffffffffffffffffffffffffffffffffffffffff1673ffffffffffffffffffffffffffffffffffffffff16815260200190815260200160002060006101000a81548160ff02191690836002811115610a9657fe5b02179055505b50565b6000818301905082811015610ab057fe5b80905092915050565b600082821115610ac557fe5b81830390509291505056fea165627a7a723058202981a0fadde233eb2389b989d7df26989e8453cab420b8ecfda6b6ebd525d3980029",
  "source": "pragma solidity ^0.5.0;\r\n\r\nimport './helpers/SafeMath.sol';\r\n\r\ncontract Account {\r\n    using SafeMath for *;\r\n\r\n    enum AccountStatusType {\r\n        closed,\r\n        open\r\n    }\r\n\r\n    enum AccountAccumulationType {\r\n        Accumulation1,\r\n        Accumulation2,\r\n        DefinedBenefitDivision,\r\n        PersonalAccount,\r\n        Pension\r\n    }\r\n\r\n    enum DelegatedPermissionTypes {\r\n        none,\r\n        contributive,\r\n        administrative\r\n    }\r\n\r\n    event LogSuccessfullyCreated(string createdAccount);\r\n\r\n    // Most of these variables should be private, and updated through functions that check ownership permissions\r\n\r\n    address payable SuperAccountId; // contractID\r\n    address payable EmployeeId; // AccountHolder Address, used for permissions to update private variables\r\n    address public TaxOutputAddress; //Address controlled by UniSuper or ATO\r\n    mapping (address => DelegatedPermissionTypes) public DelegatePermissions; // List of Addresses that are allowed to contribute\r\n\r\n    uint public NetBalance;\r\n    uint public TimeTillReward;\r\n    uint public RewardSize;\r\n    uint public PayoutFrequency;\r\n\r\n\r\n    AccountStatusType public AccountStatus;\r\n    AccountAccumulationType AccountType;\r\n\r\n    constructor(address payable employeeId, AccountAccumulationType accountType) public {\r\n        SuperAccountId = address(this);\r\n        EmployeeId = employeeId;\r\n        AccountStatus = AccountStatusType.open;\r\n        AccountType = accountType;\r\n        string memory logevent = \"logged\";\r\n        emit LogSuccessfullyCreated(logevent);\r\n    }\r\n\r\n\r\n    function increaseRewardSize(uint rewardIncrement) public {\r\n        RewardSize = RewardSize.add(rewardIncrement);\r\n    }\r\n\r\n    function decreaseRewardSize(uint rewardIncrement) public {\r\n        RewardSize = RewardSize.sub(rewardIncrement);\r\n    }\r\n\r\n    function increasePayoutFrequency(uint payoutFrequencyIncrement) public {\r\n        PayoutFrequency = PayoutFrequency.add(payoutFrequencyIncrement);\r\n    }\r\n\r\n    function decreasePayoutFrequency(uint payoutFrequencyIncrement) public {\r\n        PayoutFrequency = PayoutFrequency.sub(payoutFrequencyIncrement);\r\n    }\r\n\r\n    function removeAllDelegatePermissions(address thirdPartyAddress) public {\r\n        if(DelegatePermissions[thirdPartyAddress] != DelegatedPermissionTypes.none) {\r\n            DelegatePermissions[thirdPartyAddress] = DelegatedPermissionTypes.none;\r\n        }\r\n    }\r\n\r\n    function permitToContributiveOnly(address thirdPartyAddress) public {\r\n        if(DelegatePermissions[thirdPartyAddress] != DelegatedPermissionTypes.none) {\r\n            DelegatePermissions[thirdPartyAddress] = DelegatedPermissionTypes.none;\r\n        }\r\n    }\r\n\r\n    function permitToAdmistrative(address thirdPartyAddress) public {\r\n        if(DelegatePermissions[thirdPartyAddress] != DelegatedPermissionTypes.none) {\r\n            DelegatePermissions[thirdPartyAddress] = DelegatedPermissionTypes.none;\r\n        }\r\n    }\r\n\r\n    function closeAccount() public {\r\n        require(msg.sender == EmployeeId, 'invalid authorisation');\r\n        require(AccountStatus != AccountStatusType.closed, \"Account Already Closed\");\r\n        AccountStatus = AccountStatusType.closed;\r\n    }\r\n\r\n    function transferFunds(address payable recieverAddress, uint amount) public {\r\n        if (msg.sender == EmployeeId && NetBalance < amount) {\r\n            // Add validation that address belongs to a type(SuperAccount)\r\n            NetBalance -= amount;\r\n            recieverAddress.transfer(amount);\r\n        }\r\n\r\n        // Add administrative abilities and behaviours\r\n\r\n    }\r\n\r\n    // Handles exceptions and received payments\r\n    function () external payable {\r\n        // This is bad, we need to add logic in order to handle who sends money to the account and what kind of transaction it is likely to be.\r\n        NetBalance += msg.value;\r\n    }\r\n}",
  "sourcePath": "C:\\Users\\Adheesh dogra\\unisuper-blockchain-poc\\contracts\\Account.sol",
  "compiler": {
    "name": "solc",
    "version": "0.5.8+commit.23d335f2.Emscripten.clang"
  },
  "schemaVersion": "3.0.13",
  "updatedAt": "2019-08-26T09:52:43.781Z",
  "devdoc": {
    "methods": {}
  },
  "userdoc": {
    "methods": {}
  }
}