{
  "contractName": "Account",
  "abi": [
    {
      "constant": true,
      "inputs": [],
      "name": "TaxOutputAddress",
      "outputs": [
        {
          "name": "",
          "type": "address"
        }
      ],
      "payable": false,
      "stateMutability": "view",
      "type": "function"
    },
    {
      "constant": true,
      "inputs": [],
      "name": "TimeTillReward",
      "outputs": [
        {
          "name": "",
          "type": "uint256"
        }
      ],
      "payable": false,
      "stateMutability": "view",
      "type": "function"
    },
    {
      "constant": true,
      "inputs": [],
      "name": "SuperAccountId",
      "outputs": [
        {
          "name": "",
          "type": "address"
        }
      ],
      "payable": false,
      "stateMutability": "view",
      "type": "function"
    },
    {
      "constant": true,
      "inputs": [],
      "name": "closedAccountType",
      "outputs": [
        {
          "name": "",
          "type": "uint8"
        }
      ],
      "payable": false,
      "stateMutability": "view",
      "type": "function"
    },
    {
      "constant": true,
      "inputs": [],
      "name": "AccountStatus",
      "outputs": [
        {
          "name": "",
          "type": "uint8"
        }
      ],
      "payable": false,
      "stateMutability": "view",
      "type": "function"
    },
    {
      "constant": true,
      "inputs": [
        {
          "name": "",
          "type": "address"
        }
      ],
      "name": "DelegatePermissions",
      "outputs": [
        {
          "name": "",
          "type": "uint8"
        }
      ],
      "payable": false,
      "stateMutability": "view",
      "type": "function"
    },
    {
      "constant": true,
      "inputs": [],
      "name": "openAccountType",
      "outputs": [
        {
          "name": "",
          "type": "uint8"
        }
      ],
      "payable": false,
      "stateMutability": "view",
      "type": "function"
    },
    {
      "constant": true,
      "inputs": [],
      "name": "PayoutFrequency",
      "outputs": [
        {
          "name": "",
          "type": "uint256"
        }
      ],
      "payable": false,
      "stateMutability": "view",
      "type": "function"
    },
    {
      "constant": true,
      "inputs": [],
      "name": "NetBalance",
      "outputs": [
        {
          "name": "",
          "type": "uint256"
        }
      ],
      "payable": false,
      "stateMutability": "view",
      "type": "function"
    },
    {
      "constant": true,
      "inputs": [],
      "name": "RewardSize",
      "outputs": [
        {
          "name": "",
          "type": "uint256"
        }
      ],
      "payable": false,
      "stateMutability": "view",
      "type": "function"
    },
    {
      "inputs": [
        {
          "name": "employeeId",
          "type": "address"
        },
        {
          "name": "accountType",
          "type": "uint8"
        }
      ],
      "payable": false,
      "stateMutability": "nonpayable",
      "type": "constructor"
    },
    {
      "payable": true,
      "stateMutability": "payable",
      "type": "fallback"
    },
    {
      "anonymous": false,
      "inputs": [
        {
          "indexed": false,
          "name": "createdAccount",
          "type": "string"
        }
      ],
      "name": "LogSuccessfullyCreated",
      "type": "event"
    },
    {
      "anonymous": false,
      "inputs": [
        {
          "indexed": false,
          "name": "removedAccount",
          "type": "string"
        }
      ],
      "name": "LogSuccessfullyRemoved",
      "type": "event"
    },
    {
      "constant": false,
      "inputs": [
        {
          "name": "rewardIncrement",
          "type": "uint256"
        }
      ],
      "name": "increaseRewardSize",
      "outputs": [],
      "payable": false,
      "stateMutability": "nonpayable",
      "type": "function"
    },
    {
      "constant": false,
      "inputs": [
        {
          "name": "rewardIncrement",
          "type": "uint256"
        }
      ],
      "name": "decreaseRewardSize",
      "outputs": [],
      "payable": false,
      "stateMutability": "nonpayable",
      "type": "function"
    },
    {
      "constant": false,
      "inputs": [
        {
          "name": "payoutFrequencyIncrement",
          "type": "uint256"
        }
      ],
      "name": "increasePayoutFrequency",
      "outputs": [],
      "payable": false,
      "stateMutability": "nonpayable",
      "type": "function"
    },
    {
      "constant": false,
      "inputs": [
        {
          "name": "payoutFrequencyIncrement",
          "type": "uint256"
        }
      ],
      "name": "decreasePayoutFrequency",
      "outputs": [],
      "payable": false,
      "stateMutability": "nonpayable",
      "type": "function"
    },
    {
      "constant": false,
      "inputs": [
        {
          "name": "thirdPartyAddress",
          "type": "address"
        }
      ],
      "name": "removeAllDelegatePermissions",
      "outputs": [],
      "payable": false,
      "stateMutability": "nonpayable",
      "type": "function"
    },
    {
      "constant": false,
      "inputs": [
        {
          "name": "thirdPartyAddress",
          "type": "address"
        }
      ],
      "name": "permitToContributiveOnly",
      "outputs": [],
      "payable": false,
      "stateMutability": "nonpayable",
      "type": "function"
    },
    {
      "constant": false,
      "inputs": [
        {
          "name": "thirdPartyAddress",
          "type": "address"
        }
      ],
      "name": "permitToAdmistrative",
      "outputs": [],
      "payable": false,
      "stateMutability": "nonpayable",
      "type": "function"
    },
    {
      "constant": false,
      "inputs": [],
      "name": "closeAccount",
      "outputs": [],
      "payable": false,
      "stateMutability": "nonpayable",
      "type": "function"
    },
    {
      "constant": false,
      "inputs": [
        {
          "name": "recieverAddress",
          "type": "address"
        },
        {
          "name": "amount",
          "type": "uint256"
        }
      ],
      "name": "transferFunds",
      "outputs": [],
      "payable": false,
      "stateMutability": "nonpayable",
      "type": "function"
    }
  ],
  "bytecode": "0x60806040526000600860016101000a81548160ff0219169083600181111561002357fe5b02179055506001600860026101000a81548160ff0219169083600181111561004757fe5b021790555034801561005857600080fd5b50604051604080610f4b8339810180604052604081101561007857600080fd5b810190808051906020019092919080519060200190929190505050306000806101000a81548173ffffffffffffffffffffffffffffffffffffffff021916908373ffffffffffffffffffffffffffffffffffffffff16021790555081600160006101000a81548173ffffffffffffffffffffffffffffffffffffffff021916908373ffffffffffffffffffffffffffffffffffffffff1602179055506001600860006101000a81548160ff0219169083600181111561013357fe5b021790555080600860036101000a81548160ff0219169083600481111561015657fe5b021790555060606040518060400160405280600681526020017f6c6f67676564000000000000000000000000000000000000000000000000000081525090507f1ab379b40005ad9e7ee28cc5354473bfe302c16d3f55bc66d50210a954c19190816040518080602001828103825283818151815260200191508051906020019080838360005b838110156101f75780820151818401526020810190506101dc565b50505050905090810190601f1680156102245780820380516001836020036101000a031916815260200191505b509250505060405180910390a1505050610d08806102436000396000f3fe6080604052600436106101145760003560e01c80637d34602d116100a05780639e2c1b16116100645780639e2c1b16146104bc578063a98521a9146104e7578063df50e19d14610538578063dfd44a9514610563578063ebd2a8641461059e57610114565b80637d34602d1461036f5780637d57daad146103aa57806383be1bf1146103e5578063990dc9db146104365780639aee2e9a1461049157610114565b806339bfba7e116100e757806339bfba7e14610238578063463da8be146102735780636dd22fc6146102ac5780636fd7eb61146102c35780637611c5741461033657610114565b806326107a381461012657806326c698011461017d57806329a83c76146101a85780632aee5fb2146101ff575b34600460008282540192505081905550005b34801561013257600080fd5b5061013b6105ef565b604051808273ffffffffffffffffffffffffffffffffffffffff1673ffffffffffffffffffffffffffffffffffffffff16815260200191505060405180910390f35b34801561018957600080fd5b50610192610615565b6040518082815260200191505060405180910390f35b3480156101b457600080fd5b506101bd61061b565b604051808273ffffffffffffffffffffffffffffffffffffffff1673ffffffffffffffffffffffffffffffffffffffff16815260200191505060405180910390f35b34801561020b57600080fd5b50610214610640565b6040518082600181111561022457fe5b60ff16815260200191505060405180910390f35b34801561024457600080fd5b506102716004803603602081101561025b57600080fd5b8101908080359060200190929190505050610653565b005b34801561027f57600080fd5b50610288610671565b6040518082600181111561029857fe5b60ff16815260200191505060405180910390f35b3480156102b857600080fd5b506102c1610684565b005b3480156102cf57600080fd5b50610312600480360360208110156102e657600080fd5b81019080803573ffffffffffffffffffffffffffffffffffffffff1690602001909291905050506108e0565b6040518082600281111561032257fe5b60ff16815260200191505060405180910390f35b34801561034257600080fd5b5061034b610900565b6040518082600181111561035b57fe5b60ff16815260200191505060405180910390f35b34801561037b57600080fd5b506103a86004803603602081101561039257600080fd5b8101908080359060200190929190505050610913565b005b3480156103b657600080fd5b506103e3600480360360208110156103cd57600080fd5b8101908080359060200190929190505050610931565b005b3480156103f157600080fd5b506104346004803603602081101561040857600080fd5b81019080803573ffffffffffffffffffffffffffffffffffffffff16906020019092919050505061094f565b005b34801561044257600080fd5b5061048f6004803603604081101561045957600080fd5b81019080803573ffffffffffffffffffffffffffffffffffffffff16906020019092919080359060200190929190505050610a1e565b005b34801561049d57600080fd5b506104a6610add565b6040518082815260200191505060405180910390f35b3480156104c857600080fd5b506104d1610ae3565b6040518082815260200191505060405180910390f35b3480156104f357600080fd5b506105366004803603602081101561050a57600080fd5b81019080803573ffffffffffffffffffffffffffffffffffffffff169060200190929190505050610ae9565b005b34801561054457600080fd5b5061054d610bb8565b6040518082815260200191505060405180910390f35b34801561056f57600080fd5b5061059c6004803603602081101561058657600080fd5b8101908080359060200190929190505050610bbe565b005b3480156105aa57600080fd5b506105ed600480360360208110156105c157600080fd5b81019080803573ffffffffffffffffffffffffffffffffffffffff169060200190929190505050610bdc565b005b600260009054906101000a900473ffffffffffffffffffffffffffffffffffffffff1681565b60055481565b6000809054906101000a900473ffffffffffffffffffffffffffffffffffffffff1681565b600860019054906101000a900460ff1681565b61066881600654610cab90919063ffffffff16565b60068190555050565b600860009054906101000a900460ff1681565b600160009054906101000a900473ffffffffffffffffffffffffffffffffffffffff1673ffffffffffffffffffffffffffffffffffffffff163373ffffffffffffffffffffffffffffffffffffffff1614610747576040517f08c379a00000000000000000000000000000000000000000000000000000000081526004018080602001828103825260158152602001807f696e76616c696420617574686f7269736174696f6e000000000000000000000081525060200191505060405180910390fd5b6000600181111561075457fe5b600860009054906101000a900460ff16600181111561076f57fe5b14156107e3576040517f08c379a00000000000000000000000000000000000000000000000000000000081526004018080602001828103825260168152602001807f4163636f756e7420416c726561647920436c6f7365640000000000000000000081525060200191505060405180910390fd5b6000600860006101000a81548160ff0219169083600181111561080257fe5b021790555060606040518060400160405280600f81526020017f52656d6f766564204163636f756e74000000000000000000000000000000000081525090507f70f2aa7bee16148ac6ed8165bc3d724b8f3ffe9e2692adef6e03b78ea7937dce816040518080602001828103825283818151815260200191508051906020019080838360005b838110156108a3578082015181840152602081019050610888565b50505050905090810190601f1680156108d05780820380516001836020036101000a031916815260200191505b509250505060405180910390a150565b60036020528060005260406000206000915054906101000a900460ff1681565b600860029054906101000a900460ff1681565b61092881600754610cab90919063ffffffff16565b60078190555050565b61094681600754610cc590919063ffffffff16565b60078190555050565b6000600281111561095c57fe5b600360008373ffffffffffffffffffffffffffffffffffffffff1673ffffffffffffffffffffffffffffffffffffffff16815260200190815260200160002060009054906101000a900460ff1660028111156109b457fe5b14610a1b576000600360008373ffffffffffffffffffffffffffffffffffffffff1673ffffffffffffffffffffffffffffffffffffffff16815260200190815260200160002060006101000a81548160ff02191690836002811115610a1557fe5b02179055505b50565b600160009054906101000a900473ffffffffffffffffffffffffffffffffffffffff1673ffffffffffffffffffffffffffffffffffffffff163373ffffffffffffffffffffffffffffffffffffffff16148015610a7c575080600454105b15610ad957806004600082825403925050819055508173ffffffffffffffffffffffffffffffffffffffff166108fc829081150290604051600060405180830381858888f19350505050158015610ad7573d6000803e3d6000fd5b505b5050565b60075481565b60045481565b60006002811115610af657fe5b600360008373ffffffffffffffffffffffffffffffffffffffff1673ffffffffffffffffffffffffffffffffffffffff16815260200190815260200160002060009054906101000a900460ff166002811115610b4e57fe5b14610bb5576000600360008373ffffffffffffffffffffffffffffffffffffffff1673ffffffffffffffffffffffffffffffffffffffff16815260200190815260200160002060006101000a81548160ff02191690836002811115610baf57fe5b02179055505b50565b60065481565b610bd381600654610cc590919063ffffffff16565b60068190555050565b60006002811115610be957fe5b600360008373ffffffffffffffffffffffffffffffffffffffff1673ffffffffffffffffffffffffffffffffffffffff16815260200190815260200160002060009054906101000a900460ff166002811115610c4157fe5b14610ca8576000600360008373ffffffffffffffffffffffffffffffffffffffff1673ffffffffffffffffffffffffffffffffffffffff16815260200190815260200160002060006101000a81548160ff02191690836002811115610ca257fe5b02179055505b50565b6000818301905082811015610cbc57fe5b80905092915050565b600082821115610cd157fe5b81830390509291505056fea165627a7a7230582038c42290f742fe778867e5618ccf415087a2c1cfa4facac46c4e5d94b6bfec240029",
  "source": "pragma solidity ^0.5.0;\r\n\r\nimport './helpers/SafeMath.sol';\r\n\r\ncontract Account {\r\n    using SafeMath for *;\r\n\r\n    enum AccountStatusType {\r\n        closed,\r\n        open\r\n    }\r\n\r\n    enum AccountAccumulationType {\r\n        Accumulation1,\r\n        Accumulation2,\r\n        DefinedBenefitDivision,\r\n        PersonalAccount,\r\n        Pension\r\n    }\r\n\r\n    enum DelegatedPermissionTypes {\r\n        none,\r\n        contributive,\r\n        administrative\r\n    }\r\n\r\n    event LogSuccessfullyCreated(string createdAccount);\r\n    event LogSuccessfullyRemoved(string removedAccount);\r\n\r\n    // Most of these variables should be private, and updated through functions that check ownership permissions\r\n    \r\n    address payable public SuperAccountId; // contractID\r\n    address payable EmployeeId; // AccountHolder Address, used for permissions to update private variables\r\n    address public TaxOutputAddress; //Address controlled by UniSuper or ATO\r\n    mapping (address => DelegatedPermissionTypes) public DelegatePermissions; // List of Addresses that are allowed to contribute\r\n\r\n    uint public NetBalance;\r\n    uint public TimeTillReward;\r\n    uint public RewardSize;\r\n    uint public PayoutFrequency;\r\n\r\n\r\n    AccountStatusType public AccountStatus;\r\n    AccountStatusType public closedAccountType = AccountStatusType.closed;\r\n    AccountStatusType public openAccountType = AccountStatusType.open;\r\n    AccountAccumulationType AccountType;\r\n\r\n    constructor(address payable employeeId, AccountAccumulationType accountType) public {\r\n        SuperAccountId = address(this);\r\n        EmployeeId = employeeId;\r\n        AccountStatus = AccountStatusType.open;\r\n        AccountType = accountType;\r\n        string memory logevent = \"logged\";\r\n        emit LogSuccessfullyCreated(logevent);\r\n    }\r\n\r\n\r\n    function increaseRewardSize(uint rewardIncrement) public {\r\n        RewardSize = RewardSize.add(rewardIncrement);\r\n    }\r\n\r\n    function decreaseRewardSize(uint rewardIncrement) public {\r\n        RewardSize = RewardSize.sub(rewardIncrement);\r\n    }\r\n\r\n    function increasePayoutFrequency(uint payoutFrequencyIncrement) public {\r\n        PayoutFrequency = PayoutFrequency.add(payoutFrequencyIncrement);\r\n    }\r\n\r\n    function decreasePayoutFrequency(uint payoutFrequencyIncrement) public {\r\n        PayoutFrequency = PayoutFrequency.sub(payoutFrequencyIncrement);\r\n    }\r\n\r\n    function removeAllDelegatePermissions(address thirdPartyAddress) public {\r\n        if(DelegatePermissions[thirdPartyAddress] != DelegatedPermissionTypes.none) {\r\n            DelegatePermissions[thirdPartyAddress] = DelegatedPermissionTypes.none;\r\n        }\r\n    }\r\n\r\n    function permitToContributiveOnly(address thirdPartyAddress) public {\r\n        if(DelegatePermissions[thirdPartyAddress] != DelegatedPermissionTypes.none) {\r\n            DelegatePermissions[thirdPartyAddress] = DelegatedPermissionTypes.none;\r\n        }\r\n    }\r\n\r\n    function permitToAdmistrative(address thirdPartyAddress) public {\r\n        if(DelegatePermissions[thirdPartyAddress] != DelegatedPermissionTypes.none) {\r\n            DelegatePermissions[thirdPartyAddress] = DelegatedPermissionTypes.none;\r\n        }\r\n    }\r\n\r\n    function closeAccount() public {\r\n        require(msg.sender == EmployeeId, 'invalid authorisation');\r\n        require(AccountStatus != AccountStatusType.closed, \"Account Already Closed\");\r\n        AccountStatus = AccountStatusType.closed;\r\n        string memory logevent = \"Removed Account\";\r\n        emit LogSuccessfullyRemoved(logevent);\r\n    }\r\n\r\n    function transferFunds(address payable recieverAddress, uint amount) public {\r\n        if (msg.sender == EmployeeId && NetBalance < amount) {\r\n            // Add validation that address belongs to a type(SuperAccount)\r\n            NetBalance -= amount;\r\n            recieverAddress.transfer(amount);\r\n        }\r\n\r\n        // Add administrative abilities and behaviours\r\n\r\n    }\r\n\r\n    // Handles exceptions and received payments\r\n    function () external payable {\r\n        // This is bad, we need to add logic in order to handle who sends money to the account and what kind of transaction it is likely to be.\r\n        NetBalance += msg.value;\r\n    }\r\n}",
  "sourcePath": "C:\\Users\\KUSHAGRA SHARMA\\unisuper-blockchain-poc\\contracts\\Account.sol",
  "compiler": {
    "name": "solc",
    "version": "0.5.8+commit.23d335f2.Emscripten.clang"
  },
  "schemaVersion": "3.0.11",
  "updatedAt": "2019-09-07T14:40:34.968Z",
  "devdoc": {
    "methods": {}
  },
  "userdoc": {
    "methods": {}
  }
}