{
  "contractName": "Employee",
  "abi": [
    {
      "constant": true,
      "inputs": [],
      "name": "DOB",
      "outputs": [
        {
          "name": "",
          "type": "string"
        }
      ],
      "payable": false,
      "stateMutability": "view",
      "type": "function"
    },
    {
      "constant": true,
      "inputs": [],
      "name": "EmployeeAddress",
      "outputs": [
        {
          "name": "",
          "type": "address"
        }
      ],
      "payable": false,
      "stateMutability": "view",
      "type": "function"
    },
    {
      "constant": true,
      "inputs": [],
      "name": "SpouseId",
      "outputs": [
        {
          "name": "",
          "type": "address"
        }
      ],
      "payable": false,
      "stateMutability": "view",
      "type": "function"
    },
    {
      "constant": true,
      "inputs": [],
      "name": "EmployeeId",
      "outputs": [
        {
          "name": "",
          "type": "address"
        }
      ],
      "payable": false,
      "stateMutability": "view",
      "type": "function"
    },
    {
      "inputs": [
        {
          "name": "dob",
          "type": "string"
        }
      ],
      "payable": false,
      "stateMutability": "nonpayable",
      "type": "constructor"
    },
    {
      "payable": true,
      "stateMutability": "payable",
      "type": "fallback"
    },
    {
      "anonymous": false,
      "inputs": [
        {
          "indexed": false,
          "name": "loggedAccount",
          "type": "address"
        }
      ],
      "name": "LogCreateNewAccount",
      "type": "event"
    },
    {
      "constant": false,
      "inputs": [
        {
          "name": "payoutAddress",
          "type": "address"
        }
      ],
      "name": "setPayoutAddress",
      "outputs": [],
      "payable": false,
      "stateMutability": "nonpayable",
      "type": "function"
    },
    {
      "constant": false,
      "inputs": [
        {
          "name": "spouseId",
          "type": "address"
        }
      ],
      "name": "addSpouse",
      "outputs": [],
      "payable": false,
      "stateMutability": "nonpayable",
      "type": "function"
    },
    {
      "constant": false,
      "inputs": [
        {
          "name": "spouseId",
          "type": "address"
        }
      ],
      "name": "removeSpouse",
      "outputs": [],
      "payable": false,
      "stateMutability": "nonpayable",
      "type": "function"
    },
    {
      "constant": false,
      "inputs": [
        {
          "name": "payoutAddress",
          "type": "address"
        }
      ],
      "name": "changePayoutAddress",
      "outputs": [],
      "payable": false,
      "stateMutability": "nonpayable",
      "type": "function"
    },
    {
      "constant": false,
      "inputs": [],
      "name": "createNewAccount",
      "outputs": [],
      "payable": false,
      "stateMutability": "nonpayable",
      "type": "function"
    },
    {
      "constant": false,
      "inputs": [
        {
          "name": "accountAddress",
          "type": "address"
        }
      ],
      "name": "deleteAccount",
      "outputs": [],
      "payable": false,
      "stateMutability": "nonpayable",
      "type": "function"
    },
    {
      "constant": false,
      "inputs": [
        {
          "name": "payTo",
          "type": "address"
        },
        {
          "name": "payFrom",
          "type": "address"
        },
        {
          "name": "amount",
          "type": "uint256"
        }
      ],
      "name": "transferFundsBetweenAccounts",
      "outputs": [],
      "payable": false,
      "stateMutability": "nonpayable",
      "type": "function"
    },
    {
      "constant": false,
      "inputs": [
        {
          "name": "accountAddress",
          "type": "address"
        },
        {
          "name": "amount",
          "type": "uint256"
        }
      ],
      "name": "payVoluntaryContribution",
      "outputs": [],
      "payable": false,
      "stateMutability": "nonpayable",
      "type": "function"
    },
    {
      "constant": true,
      "inputs": [],
      "name": "getArrayOfAccounts",
      "outputs": [
        {
          "name": "",
          "type": "address[]"
        }
      ],
      "payable": false,
      "stateMutability": "view",
      "type": "function"
    }
  ],
  "bytecode": "0x608060405233600260006101000a81548173ffffffffffffffffffffffffffffffffffffffff021916908373ffffffffffffffffffffffffffffffffffffffff1602179055503480156200005257600080fd5b506040516200214838038062002148833981018060405260208110156200007857600080fd5b8101908080516401000000008111156200009157600080fd5b82810190506020810184811115620000a857600080fd5b8151856001820283011164010000000082111715620000c657600080fd5b5050929190505050306000806101000a81548173ffffffffffffffffffffffffffffffffffffffff021916908373ffffffffffffffffffffffffffffffffffffffff16021790555080600490805190602001906200012692919062000150565b506000600360146101000a81548163ffffffff021916908363ffffffff16021790555050620001ff565b828054600181600116156101000203166002900490600052602060002090601f016020900481019282601f106200019357805160ff1916838001178555620001c4565b82800160010185558215620001c4579182015b82811115620001c3578251825591602001919060010190620001a6565b5b509050620001d39190620001d7565b5090565b620001fc91905b80821115620001f8576000816000905550600101620001de565b5090565b90565b611f39806200020f6000396000f3fe6080604052600436106100c25760003560e01c80637ee7b6281161007f5780639ae884cc116100595780639ae884cc146103f3578063c4d430a514610444578063d3e5b9bb14610495578063d5b42355146104f0576100c2565b80637ee7b628146102ca578063865c992f1461034557806390f42f961461039c576100c2565b80630426c697146100c45780630870035f1461011557806333ea51a81461012c5780633e2778771461017d5780634c1b64cb1461020d57806353aacda11461025e575b005b3480156100d057600080fd5b50610113600480360360208110156100e757600080fd5b81019080803573ffffffffffffffffffffffffffffffffffffffff169060200190929190505050610547565b005b34801561012157600080fd5b5061012a61064e565b005b34801561013857600080fd5b5061017b6004803603602081101561014f57600080fd5b81019080803573ffffffffffffffffffffffffffffffffffffffff16906020019092919050505061082e565b005b34801561018957600080fd5b50610192610937565b6040518080602001828103825283818151815260200191508051906020019080838360005b838110156101d25780820151818401526020810190506101b7565b50505050905090810190601f1680156101ff5780820380516001836020036101000a031916815260200191505b509250505060405180910390f35b34801561021957600080fd5b5061025c6004803603602081101561023057600080fd5b81019080803573ffffffffffffffffffffffffffffffffffffffff1690602001909291905050506109d5565b005b34801561026a57600080fd5b50610273610b5a565b6040518080602001828103825283818151815260200191508051906020019060200280838360005b838110156102b657808201518184015260208101905061029b565b505050509050019250505060405180910390f35b3480156102d657600080fd5b50610343600480360360608110156102ed57600080fd5b81019080803573ffffffffffffffffffffffffffffffffffffffff169060200190929190803573ffffffffffffffffffffffffffffffffffffffff16906020019092919080359060200190929190505050610be8565b005b34801561035157600080fd5b5061035a610eac565b604051808273ffffffffffffffffffffffffffffffffffffffff1673ffffffffffffffffffffffffffffffffffffffff16815260200191505060405180910390f35b3480156103a857600080fd5b506103b1610ed2565b604051808273ffffffffffffffffffffffffffffffffffffffff1673ffffffffffffffffffffffffffffffffffffffff16815260200191505060405180910390f35b3480156103ff57600080fd5b506104426004803603602081101561041657600080fd5b81019080803573ffffffffffffffffffffffffffffffffffffffff169060200190929190505050610ef8565b005b34801561045057600080fd5b506104936004803603602081101561046757600080fd5b81019080803573ffffffffffffffffffffffffffffffffffffffff169060200190929190505050610fe3565b005b3480156104a157600080fd5b506104ee600480360360408110156104b857600080fd5b81019080803573ffffffffffffffffffffffffffffffffffffffff169060200190929190803590602001909291905050506110cf565b005b3480156104fc57600080fd5b50610505611192565b604051808273ffffffffffffffffffffffffffffffffffffffff1673ffffffffffffffffffffffffffffffffffffffff16815260200191505060405180910390f35b600260009054906101000a900473ffffffffffffffffffffffffffffffffffffffff1673ffffffffffffffffffffffffffffffffffffffff163373ffffffffffffffffffffffffffffffffffffffff161461060a576040517f08c379a00000000000000000000000000000000000000000000000000000000081526004018080602001828103825260158152602001807f496e76616c696420417574686f72697a6174696f6e000000000000000000000081525060200191505060405180910390fd5b80600360006101000a81548173ffffffffffffffffffffffffffffffffffffffff021916908373ffffffffffffffffffffffffffffffffffffffff16021790555050565b600260009054906101000a900473ffffffffffffffffffffffffffffffffffffffff1673ffffffffffffffffffffffffffffffffffffffff163373ffffffffffffffffffffffffffffffffffffffff1614610711576040517f08c379a00000000000000000000000000000000000000000000000000000000081526004018080602001828103825260158152602001807f496e76616c696420417574686f72697a6174696f6e000000000000000000000081525060200191505060405180910390fd5b60008060009054906101000a900473ffffffffffffffffffffffffffffffffffffffff166000604051610743906111b7565b808373ffffffffffffffffffffffffffffffffffffffff1673ffffffffffffffffffffffffffffffffffffffff16815260200182600481111561078257fe5b60ff16815260200192505050604051809103906000f0801580156107aa573d6000803e3d6000fd5b50905080600560008373ffffffffffffffffffffffffffffffffffffffff1673ffffffffffffffffffffffffffffffffffffffff16815260200190815260200160002060006101000a81548173ffffffffffffffffffffffffffffffffffffffff021916908373ffffffffffffffffffffffffffffffffffffffff16021790555050565b600260009054906101000a900473ffffffffffffffffffffffffffffffffffffffff168073ffffffffffffffffffffffffffffffffffffffff163373ffffffffffffffffffffffffffffffffffffffff16146108f2576040517f08c379a00000000000000000000000000000000000000000000000000000000081526004018080602001828103825260158152602001807f496e76616c696420417574686f72697a6174696f6e000000000000000000000081525060200191505060405180910390fd5b81600260006101000a81548173ffffffffffffffffffffffffffffffffffffffff021916908373ffffffffffffffffffffffffffffffffffffffff1602179055505050565b60048054600181600116156101000203166002900480601f0160208091040260200160405190810160405280929190818152602001828054600181600116156101000203166002900480156109cd5780601f106109a2576101008083540402835291602001916109cd565b820191906000526020600020905b8154815290600101906020018083116109b057829003601f168201915b505050505081565b600260009054906101000a900473ffffffffffffffffffffffffffffffffffffffff1673ffffffffffffffffffffffffffffffffffffffff163373ffffffffffffffffffffffffffffffffffffffff1614610a98576040517f08c379a00000000000000000000000000000000000000000000000000000000081526004018080602001828103825260158152602001807f496e76616c696420417574686f72697a6174696f6e000000000000000000000081525060200191505060405180910390fd5b600560008273ffffffffffffffffffffffffffffffffffffffff1673ffffffffffffffffffffffffffffffffffffffff16815260200190815260200160002060009054906101000a900473ffffffffffffffffffffffffffffffffffffffff1673ffffffffffffffffffffffffffffffffffffffff16636dd22fc66040518163ffffffff1660e01b8152600401600060405180830381600087803b158015610b3f57600080fd5b505af1158015610b53573d6000803e3d6000fd5b5050505050565b60606006805480602002602001604051908101604052809291908181526020018280548015610bde57602002820191906000526020600020905b8160009054906101000a900473ffffffffffffffffffffffffffffffffffffffff1673ffffffffffffffffffffffffffffffffffffffff1681526020019060010190808311610b94575b5050505050905090565b600260009054906101000a900473ffffffffffffffffffffffffffffffffffffffff1673ffffffffffffffffffffffffffffffffffffffff163373ffffffffffffffffffffffffffffffffffffffff1614610cab576040517f08c379a00000000000000000000000000000000000000000000000000000000081526004018080602001828103825260158152602001807f496e76616c696420417574686f72697a6174696f6e000000000000000000000081525060200191505060405180910390fd5b600180811115610cb757fe5b600560008573ffffffffffffffffffffffffffffffffffffffff1673ffffffffffffffffffffffffffffffffffffffff16815260200190815260200160002060009054906101000a900473ffffffffffffffffffffffffffffffffffffffff1673ffffffffffffffffffffffffffffffffffffffff1663463da8be6040518163ffffffff1660e01b815260040160206040518083038186803b158015610d5c57600080fd5b505afa158015610d70573d6000803e3d6000fd5b505050506040513d6020811015610d8657600080fd5b81019080805190602001909291905050506001811115610da257fe5b1415610ea757600560008373ffffffffffffffffffffffffffffffffffffffff1673ffffffffffffffffffffffffffffffffffffffff16815260200190815260200160002060009054906101000a900473ffffffffffffffffffffffffffffffffffffffff1673ffffffffffffffffffffffffffffffffffffffff1663990dc9db84836040518363ffffffff1660e01b8152600401808373ffffffffffffffffffffffffffffffffffffffff1673ffffffffffffffffffffffffffffffffffffffff16815260200182815260200192505050600060405180830381600087803b158015610e8e57600080fd5b505af1158015610ea2573d6000803e3d6000fd5b505050505b505050565b600260009054906101000a900473ffffffffffffffffffffffffffffffffffffffff1681565b600160009054906101000a900473ffffffffffffffffffffffffffffffffffffffff1681565b600073ffffffffffffffffffffffffffffffffffffffff16600160009054906101000a900473ffffffffffffffffffffffffffffffffffffffff1673ffffffffffffffffffffffffffffffffffffffff1614610f9f576040517f08c379a0000000000000000000000000000000000000000000000000000000008152600401808060200182810382526028815260200180611ebc6028913960400191505060405180910390fd5b80600160006101000a81548173ffffffffffffffffffffffffffffffffffffffff021916908373ffffffffffffffffffffffffffffffffffffffff16021790555050565b600073ffffffffffffffffffffffffffffffffffffffff16600160009054906101000a900473ffffffffffffffffffffffffffffffffffffffff1673ffffffffffffffffffffffffffffffffffffffff16141561108b576040517f08c379a000000000000000000000000000000000000000000000000000000000815260040180806020018281038252602a815260200180611ee4602a913960400191505060405180910390fd5b80600160006101000a81548173ffffffffffffffffffffffffffffffffffffffff021916908373ffffffffffffffffffffffffffffffffffffffff16021790555050565b6000809054906101000a900473ffffffffffffffffffffffffffffffffffffffff1673ffffffffffffffffffffffffffffffffffffffff163373ffffffffffffffffffffffffffffffffffffffff161480156111415750803073ffffffffffffffffffffffffffffffffffffffff1631115b1561118e578173ffffffffffffffffffffffffffffffffffffffff166108fc829081150290604051600060405180830381858888f1935050505015801561118c573d6000803e3d6000fd5b505b5050565b6000809054906101000a900473ffffffffffffffffffffffffffffffffffffffff1681565b610cf7806111c58339019056fe608060405234801561001057600080fd5b50604051604080610cf78339810180604052604081101561003057600080fd5b810190808051906020019092919080519060200190929190505050306000806101000a81548173ffffffffffffffffffffffffffffffffffffffff021916908373ffffffffffffffffffffffffffffffffffffffff16021790555081600160006101000a81548173ffffffffffffffffffffffffffffffffffffffff021916908373ffffffffffffffffffffffffffffffffffffffff1602179055506001600860006101000a81548160ff021916908360018111156100eb57fe5b021790555080600860016101000a81548160ff0219169083600481111561010e57fe5b021790555060606040518060400160405280600681526020017f6c6f67676564000000000000000000000000000000000000000000000000000081525090507f1ab379b40005ad9e7ee28cc5354473bfe302c16d3f55bc66d50210a954c19190816040518080602001828103825283818151815260200191508051906020019080838360005b838110156101af578082015181840152602081019050610194565b50505050905090810190601f1680156101dc5780820380516001836020036101000a031916815260200191505b509250505060405180910390a1505050610afc806101fb6000396000f3fe6080604052600436106100f35760003560e01c806383be1bf11161008a578063a98521a911610059578063a98521a9146103fd578063df50e19d1461044e578063dfd44a9514610479578063ebd2a864146104b4576100f3565b806383be1bf1146102fb578063990dc9db1461034c5780639aee2e9a146103a75780639e2c1b16146103d2576100f3565b80636dd22fc6116100c65780636dd22fc6146101fb5780636fd7eb61146102125780637d34602d146102855780637d57daad146102c0576100f3565b806326107a381461010557806326c698011461015c57806339bfba7e14610187578063463da8be146101c2575b34600460008282540192505081905550005b34801561011157600080fd5b5061011a610505565b604051808273ffffffffffffffffffffffffffffffffffffffff1673ffffffffffffffffffffffffffffffffffffffff16815260200191505060405180910390f35b34801561016857600080fd5b5061017161052b565b6040518082815260200191505060405180910390f35b34801561019357600080fd5b506101c0600480360360208110156101aa57600080fd5b8101908080359060200190929190505050610531565b005b3480156101ce57600080fd5b506101d761054f565b604051808260018111156101e757fe5b60ff16815260200191505060405180910390f35b34801561020757600080fd5b50610210610562565b005b34801561021e57600080fd5b506102616004803603602081101561023557600080fd5b81019080803573ffffffffffffffffffffffffffffffffffffffff1690602001909291905050506106e7565b6040518082600281111561027157fe5b60ff16815260200191505060405180910390f35b34801561029157600080fd5b506102be600480360360208110156102a857600080fd5b8101908080359060200190929190505050610707565b005b3480156102cc57600080fd5b506102f9600480360360208110156102e357600080fd5b8101908080359060200190929190505050610725565b005b34801561030757600080fd5b5061034a6004803603602081101561031e57600080fd5b81019080803573ffffffffffffffffffffffffffffffffffffffff169060200190929190505050610743565b005b34801561035857600080fd5b506103a56004803603604081101561036f57600080fd5b81019080803573ffffffffffffffffffffffffffffffffffffffff16906020019092919080359060200190929190505050610812565b005b3480156103b357600080fd5b506103bc6108d1565b6040518082815260200191505060405180910390f35b3480156103de57600080fd5b506103e76108d7565b6040518082815260200191505060405180910390f35b34801561040957600080fd5b5061044c6004803603602081101561042057600080fd5b81019080803573ffffffffffffffffffffffffffffffffffffffff1690602001909291905050506108dd565b005b34801561045a57600080fd5b506104636109ac565b6040518082815260200191505060405180910390f35b34801561048557600080fd5b506104b26004803603602081101561049c57600080fd5b81019080803590602001909291905050506109b2565b005b3480156104c057600080fd5b50610503600480360360208110156104d757600080fd5b81019080803573ffffffffffffffffffffffffffffffffffffffff1690602001909291905050506109d0565b005b600260009054906101000a900473ffffffffffffffffffffffffffffffffffffffff1681565b60055481565b61054681600654610a9f90919063ffffffff16565b60068190555050565b600860009054906101000a900460ff1681565b600160009054906101000a900473ffffffffffffffffffffffffffffffffffffffff1673ffffffffffffffffffffffffffffffffffffffff163373ffffffffffffffffffffffffffffffffffffffff1614610625576040517f08c379a00000000000000000000000000000000000000000000000000000000081526004018080602001828103825260158152602001807f696e76616c696420617574686f7269736174696f6e000000000000000000000081525060200191505060405180910390fd5b6000600181111561063257fe5b600860009054906101000a900460ff16600181111561064d57fe5b14156106c1576040517f08c379a00000000000000000000000000000000000000000000000000000000081526004018080602001828103825260168152602001807f4163636f756e7420416c726561647920436c6f7365640000000000000000000081525060200191505060405180910390fd5b6000600860006101000a81548160ff021916908360018111156106e057fe5b0217905550565b60036020528060005260406000206000915054906101000a900460ff1681565b61071c81600754610a9f90919063ffffffff16565b60078190555050565b61073a81600754610ab990919063ffffffff16565b60078190555050565b6000600281111561075057fe5b600360008373ffffffffffffffffffffffffffffffffffffffff1673ffffffffffffffffffffffffffffffffffffffff16815260200190815260200160002060009054906101000a900460ff1660028111156107a857fe5b1461080f576000600360008373ffffffffffffffffffffffffffffffffffffffff1673ffffffffffffffffffffffffffffffffffffffff16815260200190815260200160002060006101000a81548160ff0219169083600281111561080957fe5b02179055505b50565b600160009054906101000a900473ffffffffffffffffffffffffffffffffffffffff1673ffffffffffffffffffffffffffffffffffffffff163373ffffffffffffffffffffffffffffffffffffffff16148015610870575080600454105b156108cd57806004600082825403925050819055508173ffffffffffffffffffffffffffffffffffffffff166108fc829081150290604051600060405180830381858888f193505050501580156108cb573d6000803e3d6000fd5b505b5050565b60075481565b60045481565b600060028111156108ea57fe5b600360008373ffffffffffffffffffffffffffffffffffffffff1673ffffffffffffffffffffffffffffffffffffffff16815260200190815260200160002060009054906101000a900460ff16600281111561094257fe5b146109a9576000600360008373ffffffffffffffffffffffffffffffffffffffff1673ffffffffffffffffffffffffffffffffffffffff16815260200190815260200160002060006101000a81548160ff021916908360028111156109a357fe5b02179055505b50565b60065481565b6109c781600654610ab990919063ffffffff16565b60068190555050565b600060028111156109dd57fe5b600360008373ffffffffffffffffffffffffffffffffffffffff1673ffffffffffffffffffffffffffffffffffffffff16815260200190815260200160002060009054906101000a900460ff166002811115610a3557fe5b14610a9c576000600360008373ffffffffffffffffffffffffffffffffffffffff1673ffffffffffffffffffffffffffffffffffffffff16815260200190815260200160002060006101000a81548160ff02191690836002811115610a9657fe5b02179055505b50565b6000818301905082811015610ab057fe5b80905092915050565b600082821115610ac557fe5b81830390509291505056fea165627a7a723058202981a0fadde233eb2389b989d7df26989e8453cab420b8ecfda6b6ebd525d3980029656d706c6f79656520616c72656164792068617320612073706f7573652072656769737465726564656d706c6f79656520646f6573206e6f74206861766520612073706f7573652072656769737465726564a165627a7a72305820a6fd9951cfafead12037c9548b4bbd95cca8709d9c905c2bd3d45b1a6383a5fb0029",
  "source": "pragma solidity ^0.5.0;\r\n\r\nimport './helpers/SafeMath.sol';\r\nimport './Account.sol';\r\n\r\ncontract Employee {\r\n    using SafeMath for *;\r\n\r\n    enum AccountAccumulationType {\r\n        Accumulation1,\r\n        Accumulation2,\r\n        DefinedBenefitDivision,\r\n        PersonalAccount,\r\n        Pension\r\n    }\r\n\r\n    address payable public EmployeeId;\r\n    address public SpouseId;\r\n    address public EmployeeAddress = msg.sender;\r\n    address PayoutAddress;\r\n    uint32 Counter;\r\n    string public DOB;\r\n\r\n    mapping (address => Account) Accounts;\r\n    Account[] arrayOfAccounts;\r\n    event LogCreateNewAccount(Account loggedAccount);\r\n\r\n\r\n    constructor(string memory dob) public {\r\n        //\r\n        EmployeeId = address(this);\r\n        DOB = dob;\r\n        Counter = 0;\r\n    }\r\n    // modifier for autherization check\r\n    modifier onlyEmployee(address _EmployeeAddress) {\r\n        require(msg.sender == _EmployeeAddress, \"Invalid Authorization\");\r\n    _;\r\n    }\r\n\r\n    function setPayoutAddress(address payoutAddress) public onlyEmployee(EmployeeAddress){\r\n                EmployeeAddress = payoutAddress;\r\n    }\r\n\r\n    function addSpouse(address payable spouseId) public {\r\n        require(SpouseId == address(0), \"employee already has a spouse registered\");\r\n        SpouseId = spouseId;\r\n    }\r\n\r\n    function removeSpouse(address payable spouseId) public {\r\n        require(SpouseId != address(0), \"employee does not have a spouse registered\");\r\n        SpouseId = spouseId;\r\n    }\r\n\r\n    function changePayoutAddress(address payable payoutAddress) public{\r\n        require(msg.sender == EmployeeAddress, \"Invalid Authorization\");\r\n        PayoutAddress = payoutAddress;\r\n    }\r\n\r\n    function createNewAccount() public {\r\n        require(msg.sender == EmployeeAddress, \"Invalid Authorization\");\r\n        Account tempAccountStore = new Account(EmployeeId, Account.AccountAccumulationType.Accumulation1);\r\n        Accounts[address(tempAccountStore)] = tempAccountStore;\r\n    }\r\n\r\n    function deleteAccount(address accountAddress) public {\r\n        require(msg.sender == EmployeeAddress, \"Invalid Authorization\");\r\n        Accounts[accountAddress].closeAccount();\r\n    }\r\n\r\n    function transferFundsBetweenAccounts(address payable payTo, address payable payFrom, uint amount) public {\r\n        require(msg.sender == EmployeeAddress, \"Invalid Authorization\");\r\n        if(Accounts[payTo].AccountStatus() == Account.AccountStatusType.open){\r\n            Accounts[payFrom].transferFunds(payTo, amount);\r\n        }\r\n    }\r\n\r\n    function payVoluntaryContribution(address payable accountAddress, uint amount) public {\r\n        if (msg.sender == EmployeeId && address(this).balance > amount) {\r\n            accountAddress.transfer(amount);\r\n        }\r\n\r\n\r\n        // Add administrative abilities and behaviours\r\n\r\n    }\r\n\r\n    // Creating testable code\r\n\r\n    function getArrayOfAccounts() public view  returns (Account[] memory) {\r\n        return arrayOfAccounts;\r\n    }\r\n\r\n    function () external payable {}\r\n}",
  "sourcePath": "C:/Users/Adheesh dogra/unisuper-blockchain-poc/contracts/Employee.sol",
  "compiler": {
    "name": "solc",
    "version": "0.5.8+commit.23d335f2.Emscripten.clang"
  },
  "schemaVersion": "3.0.13",
  "updatedAt": "2019-08-26T09:52:45.039Z",
  "devdoc": {
    "methods": {}
  },
  "userdoc": {
    "methods": {}
  }
}