{
  "contractName": "UniSuperLedger",
  "abi": [
    {
      "constant": false,
      "inputs": [
        {
          "name": "_dob",
          "type": "string"
        },
        {
          "name": "_addressEmployee",
          "type": "address"
        },
        {
          "name": "_username",
          "type": "string"
        }
      ],
      "name": "createEmployeeId",
      "outputs": [],
      "payable": false,
      "stateMutability": "nonpayable",
      "type": "function"
    },
    {
      "constant": true,
      "inputs": [
        {
          "name": "_username",
          "type": "string"
        }
      ],
      "name": "getEmployeeContractAddress",
      "outputs": [
        {
          "name": "eAddress",
          "type": "address"
        }
      ],
      "payable": false,
      "stateMutability": "view",
      "type": "function"
    }
  ],
  "bytecode": "0x608060405234801561001057600080fd5b50613387806100206000396000f3fe608060405234801561001057600080fd5b50600436106100365760003560e01c8063c70478ef1461003b578063fe9633ba146101ad575b600080fd5b6101ab6004803603606081101561005157600080fd5b810190808035906020019064010000000081111561006e57600080fd5b82018360208201111561008057600080fd5b803590602001918460018302840111640100000000831117156100a257600080fd5b91908080601f016020809104026020016040519081016040528093929190818152602001838380828437600081840152601f19601f820116905080830192505050505050509192919290803573ffffffffffffffffffffffffffffffffffffffff1690602001909291908035906020019064010000000081111561012557600080fd5b82018360208201111561013757600080fd5b8035906020019184600183028401116401000000008311171561015957600080fd5b91908080601f016020809104026020016040519081016040528093929190818152602001838380828437600081840152601f19601f8201169050808301925050505050505091929192905050506102a8565b005b610266600480360360208110156101c357600080fd5b81019080803590602001906401000000008111156101e057600080fd5b8201836020820111156101f257600080fd5b8035906020019184600183028401116401000000008311171561021457600080fd5b91908080601f016020809104026020016040519081016040528093929190818152602001838380828437600081840152601f19601f820116905080830192505050505050509192919290505050610593565b604051808273ffffffffffffffffffffffffffffffffffffffff1673ffffffffffffffffffffffffffffffffffffffff16815260200191505060405180910390f35b80600073ffffffffffffffffffffffffffffffffffffffff166000826040518082805190602001908083835b602083106102f757805182526020820191506020810190506020830392506102d4565b6001836020036101000a038019825116818451168082178552505050505050905001915050908152602001604051809103902060009054906101000a900473ffffffffffffffffffffffffffffffffffffffff1673ffffffffffffffffffffffffffffffffffffffff16146103d4576040517f08c379a00000000000000000000000000000000000000000000000000000000081526004018080602001828103825260188152602001807f557365726e616d6520616c72656164792074616b656e2021000000000000000081525060200191505060405180910390fd5b600084846040516103e490610625565b80806020018373ffffffffffffffffffffffffffffffffffffffff1673ffffffffffffffffffffffffffffffffffffffff168152602001828103825284818151815260200191508051906020019080838360005b83811015610453578082015181840152602081019050610438565b50505050905090810190601f1680156104805780820380516001836020036101000a031916815260200191505b509350505050604051809103906000f0801580156104a2573d6000803e3d6000fd5b509050806000846040518082805190602001908083835b602083106104dc57805182526020820191506020810190506020830392506104b9565b6001836020036101000a038019825116818451168082178552505050505050905001915050908152602001604051809103902060006101000a81548173ffffffffffffffffffffffffffffffffffffffff021916908373ffffffffffffffffffffffffffffffffffffffff160217905550600183908060018154018082558091505090600182039060005260206000200160009091929091909150908051906020019061058a929190610632565b50505050505050565b600080826040518082805190602001908083835b602083106105ca57805182526020820191506020810190506020830392506105a7565b6001836020036101000a038019825116818451168082178552505050505050905001915050908152602001604051809103902060009054906101000a900473ffffffffffffffffffffffffffffffffffffffff169050919050565b612c84806106d883390190565b828054600181600116156101000203166002900490600052602060002090601f016020900481019282601f1061067357805160ff19168380011785556106a1565b828001600101855582156106a1579182015b828111156106a0578251825591602001919060010190610685565b5b5090506106ae91906106b2565b5090565b6106d491905b808211156106d05760008160009055506001016106b8565b5090565b9056fe60806040523480156200001157600080fd5b5060405162002c8438038062002c84833981018060405260408110156200003757600080fd5b8101908080516401000000008111156200005057600080fd5b828101905060208101848111156200006757600080fd5b81518560018202830111640100000000821117156200008557600080fd5b50509291906020018051906020019092919050505080600260006101000a81548173ffffffffffffffffffffffffffffffffffffffff021916908373ffffffffffffffffffffffffffffffffffffffff160217905550306000806101000a81548173ffffffffffffffffffffffffffffffffffffffff021916908373ffffffffffffffffffffffffffffffffffffffff1602179055508160049080519060200190620001339291906200015e565b506000600360146101000a81548163ffffffff021916908363ffffffff16021790555050506200020d565b828054600181600116156101000203166002900490600052602060002090601f016020900481019282601f10620001a157805160ff1916838001178555620001d2565b82800160010185558215620001d2579182015b82811115620001d1578251825591602001919060010190620001b4565b5b509050620001e19190620001e5565b5090565b6200020a91905b8082111562000206576000816000905550600101620001ec565b5090565b90565b612a67806200021d6000396000f3fe6080604052600436106200010a5760003560e01c8063865c992f1162000097578063b4a012391162000061578063b4a01239146200055b578063c4d430a514620005b5578063d3e5b9bb146200060a578063d5b423551462000669576200010a565b8063865c992f14620003e557806390f42f96146200043f5780639ae884cc14620004995780639d93579314620004ee576200010a565b80634c1b64cb11620000d95780634c1b64cb14620002665780634eeca07614620002bb57806353aacda114620002f55780637ee7b6281462000366576200010a565b80630426c697146200010c5780630870035f146200016157806333ea51a8146200017b5780633e27787714620001d0575b005b3480156200011957600080fd5b506200015f600480360360208110156200013257600080fd5b81019080803573ffffffffffffffffffffffffffffffffffffffff169060200190929190505050620006c3565b005b3480156200016e57600080fd5b5062000179620007cd565b005b3480156200018857600080fd5b50620001ce60048036036020811015620001a157600080fd5b81019080803573ffffffffffffffffffffffffffffffffffffffff16906020019092919050505062000ade565b005b348015620001dd57600080fd5b50620001e862000cac565b6040518080602001828103825283818151815260200191508051906020019080838360005b838110156200022a5780820151818401526020810190506200020d565b50505050905090810190601f168015620002585780820380516001836020036101000a031916815260200191505b509250505060405180910390f35b3480156200027357600080fd5b50620002b9600480360360208110156200028c57600080fd5b81019080803573ffffffffffffffffffffffffffffffffffffffff16906020019092919050505062000d4e565b005b348015620002c857600080fd5b50620002d362000fdb565b604051808263ffffffff1663ffffffff16815260200191505060405180910390f35b3480156200030257600080fd5b506200030d62000ff1565b6040518080602001828103825283818151815260200191508051906020019060200280838360005b838110156200035257808201518184015260208101905062000335565b505050509050019250505060405180910390f35b3480156200037357600080fd5b50620003e3600480360360608110156200038c57600080fd5b81019080803573ffffffffffffffffffffffffffffffffffffffff169060200190929190803573ffffffffffffffffffffffffffffffffffffffff1690602001909291908035906020019092919050505062001081565b005b348015620003f257600080fd5b50620003fd62001350565b604051808273ffffffffffffffffffffffffffffffffffffffff1673ffffffffffffffffffffffffffffffffffffffff16815260200191505060405180910390f35b3480156200044c57600080fd5b506200045762001376565b604051808273ffffffffffffffffffffffffffffffffffffffff1673ffffffffffffffffffffffffffffffffffffffff16815260200191505060405180910390f35b348015620004a657600080fd5b50620004ec60048036036020811015620004bf57600080fd5b81019080803573ffffffffffffffffffffffffffffffffffffffff1690602001909291905050506200139c565b005b348015620004fb57600080fd5b5062000541600480360360208110156200051457600080fd5b81019080803573ffffffffffffffffffffffffffffffffffffffff1690602001909291905050506200154f565b604051808215151515815260200191505060405180910390f35b3480156200056857600080fd5b506200057362001655565b604051808273ffffffffffffffffffffffffffffffffffffffff1673ffffffffffffffffffffffffffffffffffffffff16815260200191505060405180910390f35b348015620005c257600080fd5b506200060860048036036020811015620005db57600080fd5b81019080803573ffffffffffffffffffffffffffffffffffffffff1690602001909291905050506200167b565b005b3480156200061757600080fd5b5062000667600480360360408110156200063057600080fd5b81019080803573ffffffffffffffffffffffffffffffffffffffff1690602001909291908035906020019092919050505062001888565b005b3480156200067657600080fd5b506200068162001a14565b604051808273ffffffffffffffffffffffffffffffffffffffff1673ffffffffffffffffffffffffffffffffffffffff16815260200191505060405180910390f35b600260009054906101000a900473ffffffffffffffffffffffffffffffffffffffff168073ffffffffffffffffffffffffffffffffffffffff163373ffffffffffffffffffffffffffffffffffffffff161462000788576040517f08c379a00000000000000000000000000000000000000000000000000000000081526004018080602001828103825260168152602001807f496e76616c69642041757468656e7469636174696f6e0000000000000000000081525060200191505060405180910390fd5b81600360006101000a81548173ffffffffffffffffffffffffffffffffffffffff021916908373ffffffffffffffffffffffffffffffffffffffff1602179055505050565b600260009054906101000a900473ffffffffffffffffffffffffffffffffffffffff168073ffffffffffffffffffffffffffffffffffffffff163373ffffffffffffffffffffffffffffffffffffffff161462000892576040517f08c379a00000000000000000000000000000000000000000000000000000000081526004018080602001828103825260168152602001807f496e76616c69642041757468656e7469636174696f6e0000000000000000000081525060200191505060405180910390fd5b600260009054906101000a900473ffffffffffffffffffffffffffffffffffffffff1673ffffffffffffffffffffffffffffffffffffffff163373ffffffffffffffffffffffffffffffffffffffff161462000956576040517f08c379a00000000000000000000000000000000000000000000000000000000081526004018080602001828103825260158152602001807f496e76616c696420417574686f72697a6174696f6e000000000000000000000081525060200191505060405180910390fd5b60008060009054906101000a900473ffffffffffffffffffffffffffffffffffffffff1660006040516200098a9062001a39565b808373ffffffffffffffffffffffffffffffffffffffff1673ffffffffffffffffffffffffffffffffffffffff168152602001826004811115620009ca57fe5b60ff16815260200192505050604051809103906000f080158015620009f3573d6000803e3d6000fd5b50905080600560008373ffffffffffffffffffffffffffffffffffffffff1673ffffffffffffffffffffffffffffffffffffffff16815260200190815260200160002060006101000a81548173ffffffffffffffffffffffffffffffffffffffff021916908373ffffffffffffffffffffffffffffffffffffffff16021790555060068190806001815401808255809150509060018203906000526020600020016000909192909190916101000a81548173ffffffffffffffffffffffffffffffffffffffff021916908373ffffffffffffffffffffffffffffffffffffffff160217905550505050565b600260009054906101000a900473ffffffffffffffffffffffffffffffffffffffff168073ffffffffffffffffffffffffffffffffffffffff163373ffffffffffffffffffffffffffffffffffffffff161462000ba3576040517f08c379a00000000000000000000000000000000000000000000000000000000081526004018080602001828103825260168152602001807f496e76616c69642041757468656e7469636174696f6e0000000000000000000081525060200191505060405180910390fd5b600260009054906101000a900473ffffffffffffffffffffffffffffffffffffffff1673ffffffffffffffffffffffffffffffffffffffff163373ffffffffffffffffffffffffffffffffffffffff161462000c67576040517f08c379a00000000000000000000000000000000000000000000000000000000081526004018080602001828103825260158152602001807f496e76616c696420417574686f72697a6174696f6e000000000000000000000081525060200191505060405180910390fd5b81600360006101000a81548173ffffffffffffffffffffffffffffffffffffffff021916908373ffffffffffffffffffffffffffffffffffffffff1602179055505050565b60048054600181600116156101000203166002900480601f01602080910402602001604051908101604052809291908181526020018280546001816001161561010002031660029004801562000d465780601f1062000d1a5761010080835404028352916020019162000d46565b820191906000526020600020905b81548152906001019060200180831162000d2857829003601f168201915b505050505081565b600260009054906101000a900473ffffffffffffffffffffffffffffffffffffffff168073ffffffffffffffffffffffffffffffffffffffff163373ffffffffffffffffffffffffffffffffffffffff161462000e13576040517f08c379a00000000000000000000000000000000000000000000000000000000081526004018080602001828103825260168152602001807f496e76616c69642041757468656e7469636174696f6e0000000000000000000081525060200191505060405180910390fd5b600073ffffffffffffffffffffffffffffffffffffffff16600560008473ffffffffffffffffffffffffffffffffffffffff1673ffffffffffffffffffffffffffffffffffffffff16815260200190815260200160002060009054906101000a900473ffffffffffffffffffffffffffffffffffffffff1673ffffffffffffffffffffffffffffffffffffffff16141562000f16576040517f08c379a000000000000000000000000000000000000000000000000000000000815260040180806020018281038252601c8152602001807f4163636f756e7420686173206e6f74206265656e20637265617465640000000081525060200191505060405180910390fd5b600560008373ffffffffffffffffffffffffffffffffffffffff1673ffffffffffffffffffffffffffffffffffffffff16815260200190815260200160002060009054906101000a900473ffffffffffffffffffffffffffffffffffffffff1673ffffffffffffffffffffffffffffffffffffffff16636dd22fc66040518163ffffffff1660e01b8152600401600060405180830381600087803b15801562000fbe57600080fd5b505af115801562000fd3573d6000803e3d6000fd5b505050505050565b600360149054906101000a900463ffffffff1681565b606060068054806020026020016040519081016040528092919081815260200182805480156200107757602002820191906000526020600020905b8160009054906101000a900473ffffffffffffffffffffffffffffffffffffffff1673ffffffffffffffffffffffffffffffffffffffff16815260200190600101908083116200102c575b5050505050905090565b600260009054906101000a900473ffffffffffffffffffffffffffffffffffffffff168073ffffffffffffffffffffffffffffffffffffffff163373ffffffffffffffffffffffffffffffffffffffff161462001146576040517f08c379a00000000000000000000000000000000000000000000000000000000081526004018080602001828103825260168152602001807f496e76616c69642041757468656e7469636174696f6e0000000000000000000081525060200191505060405180910390fd5b6001808111156200115357fe5b600560008673ffffffffffffffffffffffffffffffffffffffff1673ffffffffffffffffffffffffffffffffffffffff16815260200190815260200160002060009054906101000a900473ffffffffffffffffffffffffffffffffffffffff1673ffffffffffffffffffffffffffffffffffffffff1663463da8be6040518163ffffffff1660e01b815260040160206040518083038186803b158015620011f957600080fd5b505afa1580156200120e573d6000803e3d6000fd5b505050506040513d60208110156200122557600080fd5b810190808051906020019092919050505060018111156200124257fe5b14156200134a57600560008473ffffffffffffffffffffffffffffffffffffffff1673ffffffffffffffffffffffffffffffffffffffff16815260200190815260200160002060009054906101000a900473ffffffffffffffffffffffffffffffffffffffff1673ffffffffffffffffffffffffffffffffffffffff1663990dc9db85846040518363ffffffff1660e01b8152600401808373ffffffffffffffffffffffffffffffffffffffff1673ffffffffffffffffffffffffffffffffffffffff16815260200182815260200192505050600060405180830381600087803b1580156200133057600080fd5b505af115801562001345573d6000803e3d6000fd5b505050505b50505050565b600260009054906101000a900473ffffffffffffffffffffffffffffffffffffffff1681565b600160009054906101000a900473ffffffffffffffffffffffffffffffffffffffff1681565b600260009054906101000a900473ffffffffffffffffffffffffffffffffffffffff168073ffffffffffffffffffffffffffffffffffffffff163373ffffffffffffffffffffffffffffffffffffffff161462001461576040517f08c379a00000000000000000000000000000000000000000000000000000000081526004018080602001828103825260168152602001807f496e76616c69642041757468656e7469636174696f6e0000000000000000000081525060200191505060405180910390fd5b600073ffffffffffffffffffffffffffffffffffffffff16600160009054906101000a900473ffffffffffffffffffffffffffffffffffffffff1673ffffffffffffffffffffffffffffffffffffffff16146200150a576040517f08c379a0000000000000000000000000000000000000000000000000000000008152600401808060200182810382526028815260200180620029ea6028913960400191505060405180910390fd5b81600160006101000a81548173ffffffffffffffffffffffffffffffffffffffff021916908373ffffffffffffffffffffffffffffffffffffffff1602179055505050565b60008060018111156200155e57fe5b600560008473ffffffffffffffffffffffffffffffffffffffff1673ffffffffffffffffffffffffffffffffffffffff16815260200190815260200160002060009054906101000a900473ffffffffffffffffffffffffffffffffffffffff1673ffffffffffffffffffffffffffffffffffffffff1663463da8be6040518163ffffffff1660e01b815260040160206040518083038186803b1580156200160457600080fd5b505afa15801562001619573d6000803e3d6000fd5b505050506040513d60208110156200163057600080fd5b810190808051906020019092919050505060018111156200164d57fe5b149050919050565b600360009054906101000a900473ffffffffffffffffffffffffffffffffffffffff1681565b600260009054906101000a900473ffffffffffffffffffffffffffffffffffffffff168073ffffffffffffffffffffffffffffffffffffffff163373ffffffffffffffffffffffffffffffffffffffff161462001740576040517f08c379a00000000000000000000000000000000000000000000000000000000081526004018080602001828103825260168152602001807f496e76616c69642041757468656e7469636174696f6e0000000000000000000081525060200191505060405180910390fd5b600073ffffffffffffffffffffffffffffffffffffffff16600160009054906101000a900473ffffffffffffffffffffffffffffffffffffffff1673ffffffffffffffffffffffffffffffffffffffff161415620017ea576040517f08c379a000000000000000000000000000000000000000000000000000000000815260040180806020018281038252602a81526020018062002a12602a913960400191505060405180910390fd5b8173ffffffffffffffffffffffffffffffffffffffff16600160009054906101000a900473ffffffffffffffffffffffffffffffffffffffff1673ffffffffffffffffffffffffffffffffffffffff16141562001884576000600160006101000a81548173ffffffffffffffffffffffffffffffffffffffff021916908373ffffffffffffffffffffffffffffffffffffffff1602179055505b5050565b600260009054906101000a900473ffffffffffffffffffffffffffffffffffffffff168073ffffffffffffffffffffffffffffffffffffffff163373ffffffffffffffffffffffffffffffffffffffff16146200194d576040517f08c379a00000000000000000000000000000000000000000000000000000000081526004018080602001828103825260168152602001807f496e76616c69642041757468656e7469636174696f6e0000000000000000000081525060200191505060405180910390fd5b6000809054906101000a900473ffffffffffffffffffffffffffffffffffffffff1673ffffffffffffffffffffffffffffffffffffffff163373ffffffffffffffffffffffffffffffffffffffff16148015620019c05750813073ffffffffffffffffffffffffffffffffffffffff1631115b1562001a0f578273ffffffffffffffffffffffffffffffffffffffff166108fc839081150290604051600060405180830381858888f1935050505015801562001a0d573d6000803e3d6000fd5b505b505050565b6000809054906101000a900473ffffffffffffffffffffffffffffffffffffffff1681565b610fa28062001a488339019056fe60806040526000600860016101000a81548160ff0219169083600181111561002357fe5b02179055506001600860026101000a81548160ff0219169083600181111561004757fe5b021790555034801561005857600080fd5b50604051604080610fa28339810180604052604081101561007857600080fd5b810190808051906020019092919080519060200190929190505050306000806101000a81548173ffffffffffffffffffffffffffffffffffffffff021916908373ffffffffffffffffffffffffffffffffffffffff16021790555081600160006101000a81548173ffffffffffffffffffffffffffffffffffffffff021916908373ffffffffffffffffffffffffffffffffffffffff1602179055506001600860006101000a81548160ff0219169083600181111561013357fe5b021790555080600860036101000a81548160ff0219169083600481111561015657fe5b021790555060606040518060400160405280600681526020017f6c6f67676564000000000000000000000000000000000000000000000000000081525090507f1ab379b40005ad9e7ee28cc5354473bfe302c16d3f55bc66d50210a954c19190816040518080602001828103825283818151815260200191508051906020019080838360005b838110156101f75780820151818401526020810190506101dc565b50505050905090810190601f1680156102245780820380516001836020036101000a031916815260200191505b509250505060405180910390a1505050610d5f806102436000396000f3fe60806040526004361061011f5760003560e01c80637d57daad116100a0578063a98521a911610064578063a98521a9146104f2578063c0e52d5614610543578063df50e19d1461057c578063dfd44a95146105a7578063ebd2a864146105e25761011f565b80637d57daad146103b557806383be1bf1146103f0578063990dc9db146104415780639aee2e9a1461049c5780639e2c1b16146104c75761011f565b8063463da8be116100e7578063463da8be1461027e5780636dd22fc6146102b75780636fd7eb61146102ce5780637611c574146103415780637d34602d1461037a5761011f565b806326107a381461013157806326c698011461018857806329a83c76146101b35780632aee5fb21461020a57806339bfba7e14610243575b34600460008282540192505081905550005b34801561013d57600080fd5b50610146610633565b604051808273ffffffffffffffffffffffffffffffffffffffff1673ffffffffffffffffffffffffffffffffffffffff16815260200191505060405180910390f35b34801561019457600080fd5b5061019d610659565b6040518082815260200191505060405180910390f35b3480156101bf57600080fd5b506101c861065f565b604051808273ffffffffffffffffffffffffffffffffffffffff1673ffffffffffffffffffffffffffffffffffffffff16815260200191505060405180910390f35b34801561021657600080fd5b5061021f610684565b6040518082600181111561022f57fe5b60ff16815260200191505060405180910390f35b34801561024f57600080fd5b5061027c6004803603602081101561026657600080fd5b8101908080359060200190929190505050610697565b005b34801561028a57600080fd5b506102936106b5565b604051808260018111156102a357fe5b60ff16815260200191505060405180910390f35b3480156102c357600080fd5b506102cc6106c8565b005b3480156102da57600080fd5b5061031d600480360360208110156102f157600080fd5b81019080803573ffffffffffffffffffffffffffffffffffffffff169060200190929190505050610924565b6040518082600281111561032d57fe5b60ff16815260200191505060405180910390f35b34801561034d57600080fd5b50610356610944565b6040518082600181111561036657fe5b60ff16815260200191505060405180910390f35b34801561038657600080fd5b506103b36004803603602081101561039d57600080fd5b8101908080359060200190929190505050610957565b005b3480156103c157600080fd5b506103ee600480360360208110156103d857600080fd5b8101908080359060200190929190505050610975565b005b3480156103fc57600080fd5b5061043f6004803603602081101561041357600080fd5b81019080803573ffffffffffffffffffffffffffffffffffffffff169060200190929190505050610993565b005b34801561044d57600080fd5b5061049a6004803603604081101561046457600080fd5b81019080803573ffffffffffffffffffffffffffffffffffffffff16906020019092919080359060200190929190505050610a62565b005b3480156104a857600080fd5b506104b1610b21565b6040518082815260200191505060405180910390f35b3480156104d357600080fd5b506104dc610b27565b6040518082815260200191505060405180910390f35b3480156104fe57600080fd5b506105416004803603602081101561051557600080fd5b81019080803573ffffffffffffffffffffffffffffffffffffffff169060200190929190505050610b2d565b005b34801561054f57600080fd5b50610558610bfc565b6040518082600481111561056857fe5b60ff16815260200191505060405180910390f35b34801561058857600080fd5b50610591610c0f565b6040518082815260200191505060405180910390f35b3480156105b357600080fd5b506105e0600480360360208110156105ca57600080fd5b8101908080359060200190929190505050610c15565b005b3480156105ee57600080fd5b506106316004803603602081101561060557600080fd5b81019080803573ffffffffffffffffffffffffffffffffffffffff169060200190929190505050610c33565b005b600260009054906101000a900473ffffffffffffffffffffffffffffffffffffffff1681565b60055481565b6000809054906101000a900473ffffffffffffffffffffffffffffffffffffffff1681565b600860019054906101000a900460ff1681565b6106ac81600654610d0290919063ffffffff16565b60068190555050565b600860009054906101000a900460ff1681565b600160009054906101000a900473ffffffffffffffffffffffffffffffffffffffff1673ffffffffffffffffffffffffffffffffffffffff163373ffffffffffffffffffffffffffffffffffffffff161461078b576040517f08c379a00000000000000000000000000000000000000000000000000000000081526004018080602001828103825260158152602001807f696e76616c696420617574686f7269736174696f6e000000000000000000000081525060200191505060405180910390fd5b6000600181111561079857fe5b600860009054906101000a900460ff1660018111156107b357fe5b1415610827576040517f08c379a00000000000000000000000000000000000000000000000000000000081526004018080602001828103825260168152602001807f4163636f756e7420416c726561647920436c6f7365640000000000000000000081525060200191505060405180910390fd5b6000600860006101000a81548160ff0219169083600181111561084657fe5b021790555060606040518060400160405280600f81526020017f52656d6f766564204163636f756e74000000000000000000000000000000000081525090507f70f2aa7bee16148ac6ed8165bc3d724b8f3ffe9e2692adef6e03b78ea7937dce816040518080602001828103825283818151815260200191508051906020019080838360005b838110156108e75780820151818401526020810190506108cc565b50505050905090810190601f1680156109145780820380516001836020036101000a031916815260200191505b509250505060405180910390a150565b60036020528060005260406000206000915054906101000a900460ff1681565b600860029054906101000a900460ff1681565b61096c81600754610d0290919063ffffffff16565b60078190555050565b61098a81600754610d1c90919063ffffffff16565b60078190555050565b600060028111156109a057fe5b600360008373ffffffffffffffffffffffffffffffffffffffff1673ffffffffffffffffffffffffffffffffffffffff16815260200190815260200160002060009054906101000a900460ff1660028111156109f857fe5b14610a5f576000600360008373ffffffffffffffffffffffffffffffffffffffff1673ffffffffffffffffffffffffffffffffffffffff16815260200190815260200160002060006101000a81548160ff02191690836002811115610a5957fe5b02179055505b50565b600160009054906101000a900473ffffffffffffffffffffffffffffffffffffffff1673ffffffffffffffffffffffffffffffffffffffff163373ffffffffffffffffffffffffffffffffffffffff16148015610ac0575080600454105b15610b1d57806004600082825403925050819055508173ffffffffffffffffffffffffffffffffffffffff166108fc829081150290604051600060405180830381858888f19350505050158015610b1b573d6000803e3d6000fd5b505b5050565b60075481565b60045481565b60006002811115610b3a57fe5b600360008373ffffffffffffffffffffffffffffffffffffffff1673ffffffffffffffffffffffffffffffffffffffff16815260200190815260200160002060009054906101000a900460ff166002811115610b9257fe5b14610bf9576000600360008373ffffffffffffffffffffffffffffffffffffffff1673ffffffffffffffffffffffffffffffffffffffff16815260200190815260200160002060006101000a81548160ff02191690836002811115610bf357fe5b02179055505b50565b600860039054906101000a900460ff1681565b60065481565b610c2a81600654610d1c90919063ffffffff16565b60068190555050565b60006002811115610c4057fe5b600360008373ffffffffffffffffffffffffffffffffffffffff1673ffffffffffffffffffffffffffffffffffffffff16815260200190815260200160002060009054906101000a900460ff166002811115610c9857fe5b14610cff576000600360008373ffffffffffffffffffffffffffffffffffffffff1673ffffffffffffffffffffffffffffffffffffffff16815260200190815260200160002060006101000a81548160ff02191690836002811115610cf957fe5b02179055505b50565b6000818301905082811015610d1357fe5b80905092915050565b600082821115610d2857fe5b81830390509291505056fea165627a7a72305820cf2c4bb7c6ff58b2472865065482e5c04eb9d3d137d9bc0b15f28f4f945a4f8b0029656d706c6f79656520616c72656164792068617320612073706f7573652072656769737465726564656d706c6f79656520646f6573206e6f74206861766520612073706f7573652072656769737465726564a165627a7a723058206b94c4a6660264e7fff7c19df36d0b7e7e96145954ea069434052ed3acb9177b0029a165627a7a72305820ac1e61d738b64b1ef90fa100ceef9456eefe14cddb92db3341961fc3f0c62b870029",
  "source": "pragma solidity ^0.5.0;\n\nimport './helpers/SafeMath.sol';\nimport './Employee.sol';\nimport './Account.sol';\ncontract UniSuperLedger {\n    using SafeMath for *;\n\n    mapping (string => address) AccountMap;\n    string[] EmployeeId;\n    modifier uniqueUser (string memory _username){\n        require(AccountMap[_username] == address(0), \"Username already taken !\");\n    _;\n    }\n\n    function createEmployeeId(string memory _dob, address payable _addressEmployee, string memory _username) public uniqueUser(_username){\n        Employee tempEmp = new Employee(_dob, _addressEmployee);\n        AccountMap[_username] = address(tempEmp);\n        EmployeeId.push(_username);\n    }\n\n    function getEmployeeContractAddress(string memory _username) public view returns( address eAddress) {\n        return AccountMap[_username];\n    }\n\n }\n",
  "sourcePath": "C:/Users/Dimitri/Documents/Uni/unisuper-blockchain-poc/contracts/UniSuperLedger.sol",
  "compiler": {
    "name": "solc",
    "version": "0.5.8+commit.23d335f2.Emscripten.clang"
  },
  "schemaVersion": "3.0.16",
  "updatedAt": "2019-09-16T13:10:27.365Z",
  "devdoc": {
    "methods": {}
  },
  "userdoc": {
    "methods": {}
  }
}